:100000000C942A000C9419040C9450040C9487044A
:100010000C9447000C9447000C9447000C94470044
:100020000C9447000C9447000C9447000C94470034
:100030000C9447000C9447000C9447000C94470024
:100040000C94C1090C9447000C9447000C94470091
:100050000C94470011241FBECFE5D8E0DEBFCDBF12
:1000600010E0A0E6B0E0ECE3F4E102C005900D92F0
:10007000A636B107D9F710E0A6E6B0E001C01D92A0
:10008000A637B107E1F70E94F8090C941C0A0C94FA
:100090000000DF93CF93CDB7DEB7EAE3F0E0108244
:1000A000E7E3F0E01082E4E3F0E08FEF8083E1E348
:1000B000F0E01082EBE3F0E01082E8E3F0E0108281
:1000C000E5E3F0E01082E2E3F0E01082CF91DF910F
:1000D0000895DF93CF930F92CDB7DEB71982AFE5C6
:1000E000B0E0EFE5F0E0808180688C9389810F902B
:1000F000CF91DF910895DF93CF930F92CDB7DEB705
:100100001982AFE5B0E0EFE5F0E080818F778C9366
:1001100089810F90CF91DF910895DF93CF93CDB771
:10012000DEB72C970FB6F894DEBF0FBECDBF9C8311
:100130008B831A8219828B819C81009709F478C184
:10014000198271C18981882F90E09C01220F331F91
:100150008B819C81FC01E20FF31F8081813009F0CB
:100160005FC18981282F30E03C872B878B859C8558
:100170008130910509F492C02B853C8522303105F0
:1001800009F413C18B859C85009709F047C1A5E54B
:10019000B0E0E5E5F0E080818B7F8C93A5E5B0E0F1
:1001A000E5E5F0E08081877F8C93ABE5B0E0EBE59F
:1001B000F0E0808180648C938981882F90E09C019D
:1001C000220F331F8B819C81FC01E20FF31F818181
:1001D000282F30E03A87298789859A8587309105CD
:1001E00039F129853A852830310534F489859A8595
:1001F0008630910561F04FC029853A852830310558
:10020000C9F189859A858930910519F144C0A5E520
:10021000B0E0E5E5F0E0808182608C93A5E5B0E098
:10022000E5E5F0E080818E7F8C9381E08A83F8C0E1
:10023000A5E5B0E0E5E5F0E0808182608C93A5E57E
:10024000B0E0E5E5F0E0808181608C9381E08A8315
:10025000E7C0A5E5B0E0E5E5F0E080818D7F8C9317
:10026000A5E5B0E0E5E5F0E0808181608C9381E078
:100270008A83D6C0A5E5B0E0E5E5F0E080818D7F1A
:100280008C93A5E5B0E0E5E5F0E080818E7F8C936E
:1002900081E08A83C5C083E08A83C2C0A5E5B0E05F
:1002A000E5E5F0E080818E7F8C93A5E5B0E0E5E5A3
:1002B000F0E080818D7F8C93ABE5B0E0EBE5F0E082
:1002C000808180688C938981882F90E09C01220F27
:1002D000331F8B819C81FC01E20FF31F8181282F4A
:1002E00030E038872F838F8198858730910539F1E9
:1002F0002F8138852830310534F48F8198858630F8
:10030000910561F04FC02F81388528303105C9F142
:100310008F8198858930910519F144C0A5E5B0E039
:10032000E5E5F0E0808188608C93A5E5B0E0E5E547
:10033000F0E080818B7F8C9381E08A8371C0A5E59A
:10034000B0E0E5E5F0E0808188608C93A5E5B0E061
:10035000E5E5F0E0808184608C9381E08A8360C071
:10036000A5E5B0E0E5E5F0E08081877F8C93A5E529
:10037000B0E0E5E5F0E0808184608C9381E08A83E1
:100380004FC0A5E5B0E0E5E5F0E08081877F8C9384
:10039000A5E5B0E0E5E5F0E080818B7F8C9381E01E
:1003A0008A833EC083E08A833BC0ABE5B0E0EBE5E7
:1003B000F0E0808180628C938981882F90E09C019D
:1003C000220F331F8B819C81FC01E20FF31F81817F
:1003D000282F30E03E832D838D819E8186309105CC
:1003E00031F02D813E812730310559F014C0A4E54C
:1003F000B0E0E4E5F0E080818F7B8C9381E08A833C
:100400000FC0A4E5B0E0E4E5F0E0808180648C9367
:1004100081E08A8305C083E08A8302C083E08A8307
:1004200089818F5F89838981833008F48BCE02C0F4
:1004300082E08A838A812C960FB6F894DEBF0FBEC5
:10044000CDBFCF91DF910895DF93CF93CDB7DEB7C6
:100450002B970FB6F894DEBF0FBECDBF8A836B8398
:1004600019828A81833008F00EC18A81282F30E0FA
:100470003B872A878A859B858130910509F472C064
:100480002A853B852230310509F4D3C08A859B85B6
:10049000009709F0F5C08B81282F30E03987288735
:1004A000888599858730910539F1288539852830E7
:1004B000310534F4888599858630910561F04FC007
:1004C0002885398528303105C9F188859985893095
:1004D000910519F144C0A5E5B0E0E5E5F0E08081C3
:1004E00082608C93A5E5B0E0E5E5F0E080818E7F49
:1004F0008C9381E08983C9C0A5E5B0E0E5E5F0E033
:10050000808182608C93A5E5B0E0E5E5F0E0808134
:1005100081608C9381E08983B8C0A5E5B0E0E5E512
:10052000F0E080818D7F8C93A5E5B0E0E5E5F0E01B
:10053000808181608C9381E08983A7C0A5E5B0E0CC
:10054000E5E5F0E080818D7F8C93A5E5B0E0E5E501
:10055000F0E080818E7F8C9381E0898396C083E078
:10056000898393C08B81282F30E03F832E838E8137
:100570009F818730910539F12E813F8128303105E7
:1005800034F48E819F818630910561F04FC02E81B9
:100590003F8128303105C9F18E819F8189309105D5
:1005A00019F144C0A5E5B0E0E5E5F0E080818860A0
:1005B0008C93A5E5B0E0E5E5F0E080818B7F8C933E
:1005C00081E0898362C0A5E5B0E0E5E5F0E08081E7
:1005D00088608C93A5E5B0E0E5E5F0E0808184607B
:1005E0008C9381E0898351C0A5E5B0E0E5E5F0E0BA
:1005F0008081877F8C93A5E5B0E0E5E5F0E0808120
:1006000084608C9381E0898340C0A5E5B0E0E5E596
:10061000F0E08081877F8C93A5E5B0E0E5E5F0E030
:1006200080818B7F8C9381E089832FC083E08983D5
:100630002CC08B81282F30E03D832C838C819D81C1
:100640008630910531F02C813D812730310559F0FC
:1006500014C0A4E5B0E0E4E5F0E080818F7B8C93EA
:1006600081E0898312C0A4E5B0E0E4E5F0E0808198
:1006700080648C9381E0898308C083E0898305C00E
:1006800083E0898302C083E0898389812B960FB63A
:10069000F894DEBF0FBECDBFCF91DF910895DF93F9
:1006A000CF9300D000D0CDB7DEB78A8319828A817C
:1006B0008330A0F58A81282F30E03C832B838B8107
:1006C0009C818130910599F02B813C81223031054C
:1006D000C1F08B819C810097F1F4ABE5B0E0EBE5D4
:1006E000F0E0808180648C9381E0898319C0ABE560
:1006F000B0E0EBE5F0E0808180688C9381E0898355
:100700000FC0ABE5B0E0EBE5F0E0808180628C9358
:1007100081E0898305C083E0898302C083E0898307
:1007200089810F900F900F900F90CF91DF910895D6
:10073000DF93CF9300D000D0CDB7DEB78A83198284
:100740008A818330A0F58A81282F30E03C832B8377
:100750008B819C818130910599F02B813C812230E5
:100760003105C1F08B819C810097F1F4ABE5B0E0DD
:10077000EBE5F0E080818F7B8C9381E0898319C069
:10078000ABE5B0E0EBE5F0E080818F778C9381E022
:1007900089830FC0ABE5B0E0EBE5F0E080818F7DB1
:1007A0008C9381E0898305C083E0898302C083E064
:1007B000898389810F900F900F900F90CF91DF91D7
:1007C0000895DF93CF9300D000D000D0CDB7DEB72F
:1007D0009B838A837D836C834E8319828A819B816C
:1007E0000097E9F08E818330D0F48E81882F90E0DD
:1007F000880F991FFC01EA59FF4F8A819B819183E1
:1008000080838E81882F90E0880F991FFC01E45926
:10081000FF4F8C819D819183808381E089838981D1
:1008200026960FB6F894DEBF0FBECDBFCF91DF91F5
:1008300008951F920F920FB60F9211242F933F939A
:100840004F935F936F937F938F939F93AF93BF93D8
:10085000EF93FF93DF93CF93CDB7DEB78091660020
:1008600090916700009749F0E0916600F091670071
:1008700080916C0090916D000995CF91DF91FF916F
:10088000EF91BF91AF919F918F917F916F915F9108
:100890004F913F912F910F900FBE0F901F90189581
:1008A0001F920F920FB60F9211242F933F934F93E5
:1008B0005F936F937F938F939F93AF93BF93EF93C8
:1008C000FF93DF93CF93CDB7DEB78091680090910F
:1008D0006900009749F0E0916800F091690080910B
:1008E0006E0090916F000995CF91DF91FF91EF918C
:1008F000BF91AF919F918F917F916F915F914F9138
:100900003F912F910F900FBE0F901F9018951F923F
:100910000F920FB60F9211242F933F934F935F9333
:100920006F937F938F939F93AF93BF93EF93FF93B7
:10093000DF93CF93CDB7DEB780916A0090916B00C3
:10094000009749F0E0916A00F0916B00809170008F
:10095000909171000995CF91DF91FF91EF91BF9137
:10096000AF919F918F917F916F915F914F913F9147
:100970002F910F900FBE0F901F901895DF93CF937C
:1009800000D000D00F92CDB7DEB78A836B83198277
:100990008A818430A8F58A81282F30E03D832C831A
:1009A0008C819D8181309105D1F02C813D81223057
:1009B00031052CF48C819D81009761F01EC02C8143
:1009C0003D812230310581F08C819D8183309105FC
:1009D00081F013C0EBE3F0E08B8180830EC0E8E38D
:1009E000F0E08B81808309C0E5E3F0E08B818083B8
:1009F00004C0E2E3F0E08B81808381E0898302C060
:100A000083E0898389810F900F900F900F900F9052
:100A1000CF91DF910895DF93CF9300D000D0CDB771
:100A2000DEB78A8319828A81843008F041C08A81C6
:100A3000282F30E03C832B838B819C818130910572
:100A4000E9F02B813C81223031052CF48B819C8193
:100A5000009761F02AC02B813C8122303105B1F032
:100A60008B819C8183309105C9F01FC0ABE3B0E05E
:100A7000EBE3F0E0808180958C9317C0A8E3B0E0B1
:100A8000E8E3F0E0808180958C930FC0A5E3B0E0AF
:100A9000E5E3F0E0808180958C9307C0A2E3B0E0AD
:100AA000E2E3F0E0808180958C9381E0898302C04D
:100AB00083E0898389810F900F900F900F90CF91E1
:100AC000DF910895DF93CF9300D000D000D0CDB751
:100AD000DEB78A837C836B8319828B819C8100972C
:100AE00009F443C08A818430E8F58A81282F30E0F8
:100AF0003E832D838D819E8181309105E1F02D8192
:100B00003E81223031052CF48D819E81009761F069
:100B100026C02D813E8122303105A1F08D819E813C
:100B200083309105B1F01BC0E9E3F0E08081EB81F7
:100B3000FC81808314C0E6E3F0E08081EB81FC81DE
:100B400080830DC0E3E3F0E08081EB81FC81808352
:100B500006C0E0E3F0E08081EB81FC81808381E0EE
:100B6000898305C083E0898302C082E0898389810B
:100B700026960FB6F894DEBF0FBECDBFCF91DF91A2
:100B80000895DF93CF93CDB7DEB728970FB6F894CB
:100B9000DEBF0FBECDBF8A836B834C8319828B81EE
:100BA000883008F0F6C08A81843008F0F2C08C8169
:100BB000813009F071C08A81282F30E038872F8377
:100BC0008F8198858130910549F12F8138852230B8
:100BD00031052CF48F819885009761F05AC02F81E0
:100BE00038852230310571F18F81988583309105E8
:100BF000E9F14FC0ABE3B0E0EBE3F0E08081482FD8
:100C00008B81282F30E081E090E0022E02C0880F17
:100C1000991F0A94E2F7842B8C933BC0A8E3B0E0C1
:100C2000E8E3F0E08081482F8B81282F30E081E0DD
:100C300090E0022E02C0880F991F0A94E2F7842BDD
:100C40008C9327C0A5E3B0E0E5E3F0E08081482F76
:100C50008B81282F30E081E090E0022E02C0880FC7
:100C6000991F0A94E2F7842B8C9313C0A2E3B0E09F
:100C7000E2E3F0E08081482F8B81282F30E081E093
:100C800090E0022E02C0880F991F0A94E2F7842B8D
:100C90008C9381E089837FC08C81882309F076C0A2
:100CA0008A81282F30E03E832D838D819E81813083
:100CB000910559F12D813E81223031052CF48D8131
:100CC0009E81009769F05FC02D813E812230310501
:100CD00089F18D819E818330910509F440C053C014
:100CE000ABE3B0E0EBE3F0E08081482F8B81282F6D
:100CF00030E081E090E0022E02C0880F991F0A9434
:100D0000E2F7809584238C933EC0A8E3B0E0E8E34B
:100D1000F0E08081482F8B81282F30E081E090E047
:100D2000022E02C0880F991F0A94E2F7809584234F
:100D30008C9329C0A5E3B0E0E5E3F0E08081482F83
:100D40008B81282F30E081E090E0022E02C0880FD6
:100D5000991F0A94E2F7809584238C9314C0A2E330
:100D6000B0E0E2E3F0E08081482F8B81282F30E073
:100D700081E090E0022E02C0880F991F0A94E2F7EA
:100D8000809584238C9381E0898305C083E08983E7
:100D900002C083E08983898128960FB6F894DEBF6C
:100DA0000FBECDBFCF91DF910895DF93CF9300D0D9
:100DB00000D00F92CDB7DEB78A836B8319828B8107
:100DC000883008F075C08A81843008F071C08A814B
:100DD000282F30E03D832C838C819D8181309105CB
:100DE00049F12C813D81223031052CF48C819D818B
:100DF000009761F05AC02C813D812230310571F19C
:100E00008C819D8183309105E9F14FC0ABE3B0E067
:100E1000EBE3F0E08081482F8B81282F30E081E0E8
:100E200090E0022E02C0880F991F0A94E2F78427EF
:100E30008C933BC0A8E3B0E0E8E3F0E08081482F6A
:100E40008B81282F30E081E090E0022E02C0880FD5
:100E5000991F0A94E2F784278C9327C0A5E3B0E09A
:100E6000E5E3F0E08081482F8B81282F30E081E09E
:100E700090E0022E02C0880F991F0A94E2F784279F
:100E80008C9313C0A2E3B0E0E2E3F0E08081482F4E
:100E90008B81282F30E081E090E0022E02C0880F85
:100EA000991F0A94E2F784278C9381E0898302C01A
:100EB00083E0898389810F900F900F900F900F909E
:100EC000CF91DF910895DF93CF93CDB7DEB727970A
:100ED0000FB6F894DEBF0FBECDBF8A836B835D83F0
:100EE0004C8319828C819D81009709F47EC08B818F
:100EF000883008F077C08A81843008F073C08A8116
:100F0000282F30E03F832E834E815F814130510591
:100F100059F18E819F818230910534F42E813F8179
:100F20002115310569F05BC04E815F81423051056A
:100F300079F18E819F818330910509F43DC04FC0C6
:100F4000E9E3F0E08081282F30E08B81882F90E06A
:100F5000A90102C0559547958A95E2F7CA018170AB
:100F6000EC81FD8180833BC0E6E3F0E08081282FA7
:100F700030E08B81882F90E0A90102C055954795FC
:100F80008A95E2F7CA018170EC81FD81808327C0D8
:100F9000E3E3F0E08081282F30E08B81882F90E020
:100FA000A90102C0559547958A95E2F7CA0181705B
:100FB000EC81FD81808313C0E0E3F0E08081282F85
:100FC00030E08B81882F90E0A90102C055954795AC
:100FD0008A95E2F7CA018170EC81FD81808381E00E
:100FE000898305C083E0898302C082E08983898187
:100FF00027960FB6F894DEBF0FBECDBFCF91DF911D
:101000000895DF93CF930F92CDB7DEB71982A6E292
:10101000B0E0E6E2F0E0808181608C93A6E2B0E08F
:10102000E6E2F0E0808182608C93A6E2B0E0E6E246
:10103000F0E0808184608C9381E08983A7E2B0E056
:10104000E7E2F0E0808180648C93A7E2B0E0E7E221
:10105000F0E080818F778C9381E08983A7E2B0E014
:10106000E7E2F0E080818F7D8C9381E08983898144
:101070000F90CF91DF910895DF93CF930F92CDB76B
:10108000DEB71982A6E2B0E0E6E2F0E0808180649B
:101090008C9381E0898389810F90CF91DF910895AE
:1010A000DF93CF9300D0CDB7DEB71A82E6E2F0E04F
:1010B000808182958F708170898389818823E9F38B
:1010C000A6E2B0E0E6E2F0E080818F7E8C9381E0E2
:1010D0008A838A810F900F90CF91DF910895DF93DB
:1010E000CF9300D00F92CDB7DEB79B838A8319824E
:1010F0008A819B81009729F1EA81FB819081E4E25A
:10110000F0E0808186958695892BEA81FB8180833A
:10111000EA81FB818081282FE5E2F0E08081882F41
:1011200090E0002496958795079496958795079467
:10113000982F802D822BEA81FB81808381E0898337
:1011400002C082E0898389810F900F900F90CF9128
:10115000DF910895DF93CF9300D00F92CDB7DEB724
:101160009B838A8319828A819B810097E9F0E4E25C
:10117000F0E08081882F90E0EA81FB819183808379
:10118000EA81FB8120813181E5E2F0E08081882FD6
:1011900090E0982F8827822B932BEA81FB81918303
:1011A000808381E0898302C082E0898389810F90F6
:1011B0000F900F90CF91DF910895DF93CF9300D0E0
:1011C00000D00F92CDB7DEB79B838A837D836C837B
:1011D00019828A819B81009779F08A819B81909303
:1011E0007300809372008C819D8190937500809331
:1011F000740081E0898302C082E0898389810F9035
:101200000F900F900F900F90CF91DF910895DF9383
:10121000CF9300D0CDB7DEB78A831982A7E2B0E0C2
:10122000E7E2F0E08081807E8C938A81803258F4FE
:10123000A7E2B0E0E7E2F0E090818A81892B8C930D
:1012400081E0898302C083E0898389810F900F90B8
:10125000CF91DF910895DF93CF9300D0CDB7DEB764
:101260008A831982A6E2B0E0E6E2F0E080818F7D19
:101270008C93A0E5B0E0E0E5F0E080818F7D8C9379
:10128000A0E5B0E0E0E5F0E080818F7B8C93A0E505
:10129000B0E0E0E5F0E080818F778C9381E0898396
:1012A000A6E2B0E0E6E2F0E0808180628C93898182
:1012B0000F900F90CF91DF910895DF93CF930F920E
:1012C000CDB7DEB71982A6E2B0E0E6E2F0E08081B9
:1012D0008F7D8C9381E0898389810F90CF91DF91FD
:1012E0000895DF93CF930F92CDB7DEB71982A6E2B0
:1012F000B0E0E6E2F0E0808180688C9381E0898351
:1013000089810F90CF91DF910895DF93CF930F9252
:10131000CDB7DEB71982A6E2B0E0E6E2F0E0808168
:101320008F778C9381E0898389810F90CF91DF91B2
:101330000895DF93CF930F92CDB7DEB71982A6E25F
:10134000B0E0E6E2F0E0808188608C9381E0898300
:1013500089810F90CF91DF910895DF93CF930F9202
:10136000CDB7DEB71982A6E2B0E0E6E2F0E0808118
:10137000877F8C9381E0898389810F90CF91DF9162
:1013800008951F920F920FB60F9211242F933F933F
:101390004F935F936F937F938F939F93AF93BF937D
:1013A000EF93FF93DF93CF93CDB7DEB780917200B9
:1013B00090917300009749F0E0917200F0917300F2
:1013C00080917400909175000995CF91DF91FF9104
:1013D000EF91BF91AF919F918F917F916F915F91AD
:1013E0004F913F912F910F900FBE0F901F90189526
:1013F000DF93CF9300D00F92CDB7DEB71B821A8256
:1014000019820E9449000E9401080E94710982E02D
:101410000E9407090E945D090E94AD090E943C08D4
:101420000E945008CE0103960E946F089B8182E0C3
:0C143000692F0E94BE04F2CFF894FFCF99
:06143C000109020002009C
:00000001FF
